:020000040800F2
:10000000F0020220D1800108D9800108DB800108BC
:10001000DD800108DF800108E180010800000000A8
:100020000000000000000000000000001580010832
:10003000E58001080000000069800108B5E80108BA
:10004000EB800108EB800108EB800108EB800108E0
:10005000EB800108EB800108EB800108EB800108D0
:10006000EB800108EB800108EB800108EB800108C0
:10007000EB800108EB800108EB800108EB800108B0
:10008000EB800108EB800108EB800108EB800108A0
:10009000EB800108EB800108EB800108EB80010890
:1000A000EB800108EB800108EB800108EB80010880
:1000B0000DEA0108EB800108EB800108EB800108E4
:1000C000EB800108EB800108EB800108EB80010860
:1000D000EB800108EB800108EB800108EB80010850
:1000E000EB800108EB800108EB800108EB80010840
:1000F000EB800108EB800108EB800108EB80010830
:10010000EB800108EB80010859EA0108EB80010847
:10011000EB800108EB800108EB800108EB8001080F
:10012000EB800108EB800108EB800108EB800108FF
:10013000EB8001089D8C0108EB800108EB80010831
:10014000EB800108EB800108EB800108EB800108DF
:10015000EB800108EB800108EB800108EB800108CF
:10016000EB800108EB800108EB800108EB800108BF
:10017000EB800108EB800108EB8001080000000023
:10018000EB800108EB800108EB800108EB8001089F
:10019000EB800108EB800108EB800108EB8001088F
:1001A000EB800108EB800108EB800108EB8001087F
:1001B000EB800108EB800108EB800108EB8001086F
:1001C000EB800108EB80010800000000EB800108D3
:1001D000EB800108EB800108EB800108EB8001084F
:1001E000EB800108EB800108EB800108EB8001083F
:0801F000EB800108EB8001081F
:020000040801F1
:10800000DFF80CD000F086F9004800477121020823
:10801000F00202202B4B19680868B0E8F04F80F39B
:108020000988BFF36F8F4FF0000080F3118870470D
:108030000000000006480068006880F3088862B607
:1080400061B6BFF34F8FBFF36F8F00DF00BF00BF7C
:1080500008ED00E0DFF80C00016841F470010160F8
:10806000704700BF88ED00E0EFF30980BFF36F8F2A
:10807000144B1A681EF0100F08BF20ED108A20E97B
:10808000F04F106008B44FF0500072B680F31188C2
:10809000BFF34F8FBFF36F8F62B612F013FC4FF038
:1080A000000080F3118808BC19680868B0E8F04F38
:1080B0001EF0100F08BFB0EC108A80F30988BFF3E0
:1080C0006F8F704700000020EFF3058070470000BD
:1080D0000648804706480047FEE7FEE7FEE7FEE762
:1080E000FEE7FEE7FEE7FEE7FEE7FEE7A9E9010897
:1080F00001800108004870475CBA020840EA0103A9
:108100009B0703D009E008C9121F08C0042AFAD24D
:1081100003E011F8013B00F8013B521EF9D2704711
:10812000D2B201E000F8012B491EFBD270470022B9
:10813000F6E710B513460A4604461946FFF7F0FF66
:10814000204610BD10B5044604E00B7800F8013B52
:1081500003B1491C521EF8D2204610BDCAB2401EBF
:1081600010F8011F8A4202D00029F9D1002070477F
:10817000421C10F8011B0029FBD1801A704730B552
:1081800004460020034600E05B1C934203D2E05CFF
:10819000CD5C401BF8D030BD30B50546002003460D
:1081A00000E05B1C934205D2EC5CC85C201A01D154
:1081B000002CF6D130BD0246C9B200E0401C037865
:1081C000002BFBD102E003788B4203D0401E90428B
:1081D000F9D20020704770B5064606F063FE0468C9
:1081E00005460A220021304600F018F82C6070BDC8
:1081F00030B50B46014600202022012409E021FA77
:1082000002F59D4205D303FA02F5491B04FA02F573
:108210002844151EA2F10102F1DC30BD2DE9F04722
:1082200091460F4680460446002614F8015B2DB1A6
:10823000FFF760FF0068405DC007F6D12B2D02D02C
:108240002D2D18D0641E4A463946204600F093F87A
:1082500027B13968A14201D1C7F8008071054FF0FC
:1082600002040BD54042002803DD06F01BFE04602B
:10827000A007BDE8F08746F48066E4E70028F8DA56
:1082800006F010FE04606FF00040F2E72DE9F041C7
:10829000054621F000400C46284309D0C4F30A509B
:1082A00040F23341884205DD28462146BDE8F08191
:1082B0002846FBE740F2FE31884210DC0CDB4FEA37
:1082C000043040EA155050EA053105D0104804F05A
:1082D000004101430020E9E700200146E6E7A0F263
:1082E00033404642C6F140022846214600F024F8B9
:1082F0000746884628462146324600F02CF8434679
:108300003A4600F087F83246BDE8F04100F014B874
:108310000000F03F064C074D06E0E06840F0010326
:1083200094E8070098471034AC42F6D3FFF76CFE90
:1083300034BC020854BC0208202A04DB203A00FAAC
:1083400002F1002070479140C2F1200320FA03F3AC
:10835000194390407047202A04DB203A21FA02F0AA
:108360000021704721FA02F3D040C2F1200291406F
:108370000843194670472DE9F05F824600780027D0
:1083800015468B460AF10104B946302801D09DB14B
:1083900013E014F8010B0127782803D0582801D0E6
:1083A00045B10AE00DB1102D07D10027102514F8B2
:1083B000010B02E0082500E00A250026B0460EE089
:1083C00005FB080005FB06F1012701EB10461FFA2B
:1083D00080F8B6F5803F00D3B94614F8010B294662
:1083E00000F075F80028EBDABBF1000F05D00FB1F3
:1083F000641E00E05446CBF80040B9F1000F06D0EF
:1084000006F050FD02210160C81EBDE8F09F48EA59
:108410000640FAE710B5141E73F1000408DA401C98
:1084200041F1000192185B411A4301D120F0010093
:1084300010BD2DE9F04D92469B4611B1B1FA81F283
:1084400002E0B0FA80F220329046FFF775FF044652
:108450000F4640EA0A0041EA0B0153465A460843D8
:1084600013D0114653EA010019D0C8F1400250461A
:10847000FFF771FF05460E46504659464246FFF744
:108480005BFF084305D0012004E020463946BDE8E3
:10849000F08D0020054346EAE0762C4337430A98E6
:1084A0006305E40AA0EB08000022FD0A44EA4754F1
:1084B0000A3002D500200146E9E70105101969419B
:1084C000DDE9084500196941BDE8F04DA2E73A2809
:1084D00000D2303820F02002412A01D3A2F1370027
:1084E000884201D34FF0FF30704770B58C1810F8F8
:1084F000015B15F0070301D110F8013B2A1106D1E9
:1085000010F8012B03E010F8016B01F8016B5B1E02
:10851000F9D12B0705D40023521E0DD401F8013BDD
:10852000FAE710F8013BCB1A921C03E013F8015B49
:1085300001F8015B521EF9D5A142D8D3002070BDCD
:1085400010B5044604EB4400C0EBC4101C4901EB19
:10855000C00090EDCF0ADFED1B0AB4EEE00AF1EEA9
:1085600010FA2CD804EB4400C0EBC41001EBC0009F
:1085700090EDCF0A04EB4400C0EBC41001EBC00047
:10858000D0EDCC0A30EE200A04EB4400C0EBC4105E
:1085900001EBC00080EDCF0A04EB4400C0EBC41037
:1085A0000A4602EBC00090EDCF0ABDEEC00A10EE05
:1085B000101A204605F0B2FE01200AF0A1FC10BD01
:1085C00078B9012000C0A84610B5002400BFA4E17E
:1085D00004EB4401C1EBC411D24A02EBC1004FF4D9
:1085E0007A71FFF7A4FD9FEDD00ACE4880EDD60A40
:1085F0009FEDCE0A80EDD70A9FEDCD0A00F57A7087
:1086000080EDD60A9FEDCB0A80EDD70A9FEDCA0A0E
:1086100080EDDD0A9FEDC90A80EDDE0A002104EB42
:108620004400C0EBC410BF4A02EBC00080F8F71250
:10863000012104EB4400C0EBC41002EBC00080F841
:10864000F61204EB4400C0EBC410114601EBC0006D
:10865000D0F8F00220F00200801C04EB4401C1EBD2
:10866000C41102EBC101C1F8F002B1EE040A04EB3F
:108670004400C0EBC410114601EBC00080ED960A27
:108680009FEDAF0A04EB4400C0EBC41001EBC00047
:1086900080ED9A0AB1EE040A04EB4400C0EBC4106A
:1086A00001EBC00080EDA20A9FEDA50A04EB440097
:1086B000C0EBC41001EBC00080EDA60AB2EE040AC4
:1086C00004EB4400C0EBC41001EBC00080ED8A0A4B
:1086D0009FED9C0A04EB4400C0EBC41001EBC0000A
:1086E00080ED8E0AB3EE040A04EB4400C0EBC41024
:1086F00001EBC00080EDAE0A9FED930A04EB44004D
:10870000C0EBC41001EBC00080EDB20AE0B204EB94
:108710004401C1EBC41102EBC101D1ED960AB0EEE8
:10872000600A09F0A3FF00EE100AB8EEC00B04EBDC
:108730004400C0EBC4107B4901EBC00080ED940BFA
:10874000E0B204EB4401C1EBC411764A02EBC10173
:10875000D1ED9A0AB0EE600A09F088FF00EE100A27
:10876000B8EEC00B04EB4400C0EBC4106D4901EB44
:10877000C00080ED980BE0B204EB4401C1EBC411E2
:10878000684A02EBC101D1EDA20AB0EE600A09F01D
:108790006DFF00EE100AB8EEC00B04EB4400C0EB16
:1087A000C410604901EBC00080EDA00BE0B204EB07
:1087B0004401C1EBC4115B4A02EBC101D1EDA60A31
:1087C000B0EE600A09F052FF00EE100AB8EEC00BDE
:1087D00004EB4400C0EBC410524901EBC00080ED33
:1087E000A40BE0B204EB4401C1EBC4114D4A02EB0F
:1087F000C101D1ED8A0AB0EE600A09F037FF00EE40
:10880000100AB8EEC00B04EB4400C0EBC41045499D
:1088100001EBC00080ED880BE0B204EB4401C1EB3A
:10882000C411404A02EBC101D1ED8E0AB0EE600ADC
:1088300009F01CFF00EE100AB8EEC00B04EB440078
:10884000C0EBC410374901EBC00080ED8C0BE0B2E7
:1088500004EB4401C1EBC411324A02EBC101D1ED7A
:10886000AE0AB0EE600A09F001FF00EE100AB8EEA1
:10887000C00B04EB4400C0EBC4102A4901EBC0005C
:1088800080EDAC0BE0B204EB4401C1EBC411254A0E
:1088900002EBC101D1EDB20AB0EE600A09F0E6FECA
:1088A00000EE100AB8EEC00B04EB4400C0EBC4109D
:1088B0001C4901EBC00080EDB00BB0EE080A04EBE0
:1088C0004400C0EBC41001EBC00080EDB60AE0B27A
:1088D00004EB4401C1EBC411124A02EBC101D1ED1A
:1088E000B60AB0EE600A09F0C1FE00EE100AB8EE5A
:1088F000C00B04EB4400C0EBC4100A4901EBC000FC
:1089000080EDB40B012104EB4400C0EBC410054A18
:1089100002EBC00080F87D13641C022CFFF658AEF9
:1089200010BD000078B901200DE07D407C465C3C24
:10893000F2F94440C2F38D3C90F443401BB18E3CAD
:1089400000007A430000FA440080BB442DE9F04166
:1089500006460F4669213D48FFF7E9FB3A46314696
:108960003A48FFF7EFFB781E305C384981F8680021
:10897000062237A13046FFF70FFCE8B900BF00BF61
:1089800000BF00BF00BFBFF34F8F00BF00BF00BFDD
:108990003148006800F4E06030490843001D2E496A
:1089A000086000BF00BF00BFBFF34F8F00BF00BF14
:1089B00000BF00BF00BFFDE700243AE0284850F8A0
:1089C000241001222148FFF7E7FB68BB012025495D
:1089D0000870002525E0244850F8251002221B4885
:1089E000401CFFF7D9FBB8B901201E490870174891
:1089F00090F868001D490978884208D1012019497A
:108A000008703A46294620460BF0C6FC02E00020DA
:108A100014490870BDE8F081002012490870681CF4
:108A2000C5B2192DD7DB02E000200E490870601C8A
:108A3000C4B2032CC2DB0B48007820B90C4A0DA14C
:108A4000104606F01BFA00BFE4E7000048C1012011
:108A500052455345543B00000CED00E00000FA0580
:108A600078010020EA01002084010020E9010020B3
:108A7000B1C1012025733F3E3B0000002DE9F047C6
:108A800005460E462548FFF773FB814649462348B5
:108A9000FFF74DFB0024A04600273B212846FFF7A7
:108AA0005DFB044654B326E02846FFF761FB82468F
:108AB0002046FFF75DFBAAEB000000F102092B4600
:108AC00017A24946404606F0C1F9621C15A1284686
:108AD00006F0D4F94046FFF74BFB07444046FFF74A
:108AE00047FB814649464046FFF730FF3B21284679
:108AF000FFF734FB0446002CD6D104E0074A0AA154
:108B0000104606F0BBF9B74204DA044A06A1104643
:108B100006F0B4F90148BDE8F0870000B1C10120BA
:108B200025733B002573000025733F3E3B0000008A
:108B30002DE9F04106460F461446002514E0FFF7E4
:108B4000D9FA0068615D405C202801D1012000E075
:108B50000020012802D11449087004E000201249C5
:108B60000870BDE8F0816D1C2046FFF701FBA842AC
:108B7000E5D80D480078012813D12046FFF72BFBDC
:108B800006EB4601C1EBC611084A02EBC10101F533
:108B9000607141F827003946304611F0DBFE0120B4
:108BA000DFE700BFDDE70000EA01002078B901201F
:108BB00010B5044604EB4400C0EBC4101C4901EBA3
:108BC000C00090EDCF0ADFED1B0AB4EEE00AF1EE33
:108BD00010FA2CDB04EB4400C0EBC41001EBC00026
:108BE00090EDCF0A04EB4400C0EBC41001EBC000D1
:108BF000D0EDCD0A30EE600A04EB4400C0EBC410A7
:108C000001EBC00080EDCF0A04EB4400C0EBC410C0
:108C10000A4602EBC00090EDCF0ABDEEC00A10EE8E
:108C2000101A204605F07AFB01200AF069F910BD00
:108C300078B9012000C0C044016801F580518969FC
:108C400041F00202016801F580518A6170470168B4
:108C500001F58051896941F40052016801F58051A4
:108C60008A61704738B5044600200090206800F5FE
:108C70008050806940F48011206800F58050816147
:108C8000206800F5805080690090012001F0C8FD47
:108C90000099206800F58050816138BD10B5024808
:108CA00001F0B1FE10BD0000BCB7012030B5034695
:108CB0001479557944EA0520084C0C442064D47892
:108CC0002406957844EA0544557844EA0524157845
:108CD00044EA0500014C0C44606430BD0080024051
:108CE00070B5AEB004460E46002526B14FF40061C3
:108CF000E160C900A16000201190129013901490BF
:108D000015901690E06918B94FF48060179001E053
:108D1000002017904FF400701890002019901A90BE
:108D20001B901C901D9040201E9000201F902090B2
:108D300021902290239024902590269080202790A7
:108D40000020289029902A902B902C902D9020681C
:108D5000056871480540DDE911010843139908438E
:108D600014990843A16808431599084316990843C4
:108D7000E16808431799084318990843199908436B
:108D80001A9908431B990843054320680560206829
:108D90000568012001F044FD20680560DDE91C0143
:108DA00008431E9908431F990843209908432199B5
:108DB00008432299084323990843216848602068A2
:108DC0004568012001F02CFD206845602498216849
:108DD000886025982168C860206885694FF64170D1
:108DE0000540DDE9261040EA014028990843299909
:108DF00008432A9908432B99084305432068856155
:108E000020688569012001F00BFD20688561DDE99E
:108E10002C0108432168C8612068C569012001F060
:108E2000FFFC2068C561002001904FF000700290A7
:108E3000002003904FF4001004900020059006904D
:108E40000790089004200990C0050A9040120B90EA
:108E500080010C9040120D9080200E9000200F9009
:108E60001090206800F5805085692C480540DDE9A8
:108E700001010843039908430499084305990843ED
:108E80000699084307990843089908430999084334
:108E90000543206800F580508561206800F580500A
:108EA0008569012001F0BCFC206800F580508561D7
:108EB000DDE90A0108430C9908430D9908430E990E
:108EC00008430F9940EA81001099084340F40001DB
:108ED000206800F580500160206800F5805005682A
:108EE000012001F09DFC206800F580500560A0691C
:108EF000012809D1206800F58050C069084908435D
:108F0000216801F58051C861002120466269FFF7A0
:108F1000CDFE2EB070BD00000F8120FF233FDEF894
:108F20004000010038B50446002000902068006829
:108F300040F004002168086020680068009001206B
:108F400001F06EFC00982168086038BD38B5044611
:108F5000002000902068006840F008002168086048
:108F6000206800680090012001F05AFC00982168F8
:108F7000086038BD00BFFEE710B50446204605F086
:108F80006BFC002104EB4400C0EBC410024A02EB6E
:108F9000C00080F8F91210BD78B9012010B5002288
:108FA00001B909E0012901D10A0205E0022901D134
:108FB0000A0201E04FF440720B2800D9001D154B46
:108FC0001B6823F44073134C236023461B68134330
:108FD000236023461B6823F0F803236023461B68A5
:108FE000F82494FAA4F4B4FA84F400FA04F444F0F3
:108FF00002042343074C236023461B6843F4803359
:10900000236000BF00BF00BFBFF34F8F00BF00BF92
:1090100000BF10BD103C02400B4A126822F440729F
:10902000094B1A601A4612681A601A46126842F012
:1090300001021A60017000BF00BF00BFBFF34F8F75
:1090400000BF00BF00BF7047103C024010B50D4983
:10905000096821F440710B4C21602146096841F4F4
:10906000407121602146096841F0010121600260E0
:10907000436000BF00BF00BFBFF34F8F00BF00BF02
:1090800000BF10BD103C02400C4A126822F440722E
:109090000A4B1A601A46126842F480721A601A4625
:1090A000126842F001021A60018000BF00BF00BFD9
:1090B000BFF34F8F00BF00BF00BF7047103C02409E
:1090C0000C4A126822F440720A4B1A601A4612685F
:1090D00042F400721A601A46126842F001021A60E5
:1090E000016000BF00BF00BFBFF34F8F00BF00BFD4
:1090F00000BF7047103C02401D48006800F00200AD
:1091000028B11C48806940F020001A49886118483D
:10911000006800F0100028B11648806940F0100087
:10912000144988611248006800F0200028B11148F5
:10913000806940F008000F4988610D48006800F020
:10914000400028B10B48806940F00400094988615B
:109150000748006800F0800028B10648806940F0A8
:10916000020004498861F22001490860704700004C
:109170000C3C02400087012070B504460025002009
:109180001449886102F054F9054609E0601C38B1C1
:1091900024B102F04DF9401BA04201D9032070BD5B
:1091A0000D48006800F480300028EFD10A480068BC
:1091B00000F0F20018B1FFF79FFF0120EFE706482B
:1091C000006800F0010010B1012003490860002090
:1091D000E5E70000008701200C3C024010B5044682
:1091E00004EB4400C0EBC410EC4901EBC00090ED6F
:1091F000040BB7EEC00B04EB4400C0EBC41001EB52
:10920000C00080ED230A04EB4400C0EBC41001EB66
:10921000C00090ED230A04EB4400C0EBC41001EB46
:10922000C000D0ED240A30EE600ADFEDDD0A20EE4A
:10923000200A04EB4400C0EBC41001EBC00080ED39
:10924000260A04EB4400C0EBC41001EBC00090ED13
:10925000260A04EB4400C0EBC41001EBC0006430EC
:1092600004EB4401C1EBC411CC4A02EBC10191F8FB
:109270007C1300EB810080ED000A04EB4400C0EB9E
:10928000C410114601EBC000643004EB4401C1EB93
:10929000C41102EBC10191F87C1300EB810090ED49
:1092A000000A04EB4400C0EBC410114601EBC000FF
:1092B000D0ED250A30EE200A04EB4400C0EBC410C8
:1092C00001EBC000643004EB4401C1EBC41102EBBC
:1092D000C10191F87D1300EB8100D0ED000A30EE62
:1092E000600A04EB4400C0EBC410114601EBC0005F
:1092F00080ED250A04EB4400C0EBC41001EBC00074
:1093000090ED250AF2EE040A80EE201AB7EEC10AAB
:1093100004EB4400C0EBC41001EBC00080ED160B61
:1093200004EB4400C0EBC41001EBC00090ED161B31
:10933000B0EE410B20460CF0F9FC04EB4400C0EB0E
:10934000C410964901EBC00080ED180A04EB4400FC
:10935000C0EBC41001EBC00090ED230A04EB440005
:10936000C0EBC41001EBC00080ED240A04EB440004
:10937000C0EBC41001EBC00090ED160B04EB4400F1
:10938000C0EBC41001EBC00080ED780B04EB44008F
:10939000C0EBC41001EBC00090ED180A04EB4400D0
:1093A000C0EBC41001EBC00080ED7A0A012C7DD126
:1093B00004EB4400C0EBC41001EBC00090ED2C0B9B
:1093C000B7EEC00B04EB4400C0EBC41001EBC000CF
:1093D00080ED4B0A04EB4400C0EBC41001EBC0006D
:1093E00090ED4B0A04EB4400C0EBC41001EBC0004D
:1093F000D0ED4C0A30EE600ADFED690A20EE200A5B
:1094000004EB4400C0EBC41001EBC00080ED4E0A39
:1094100004EB4400C0EBC41001EBC00090ED4E0A19
:1094200004EB4400C0EBC41001EBC00000F58270F7
:1094300004EB4401C1EBC411584A02EBC10191F89D
:109440007C1300EB810080ED000A04EB4400C0EBCC
:10945000C410114601EBC00000F5827004EB44011A
:10946000C1EBC41102EBC10191F87C1300EB810048
:1094700090ED000A04EB4400C0EBC410114601EB70
:10948000C000D0ED4D0A30EE200A04EB4400C0EBE2
:10949000C41001EBC00000F5827004EB4401C1EB85
:1094A000C41102EBC10191F87D1300E074E000EB00
:1094B0008100D0ED000A30EE600A04EB4400C0EBFE
:1094C000C410114601EBC00080ED4D0A04EB4400CE
:1094D000C0EBC41001EBC00090ED4D0AF2EE040A9F
:1094E00080EE201AB7EEC10A04EB4400C0EBC410B2
:1094F00001EBC00080ED3E0B04EB4400C0EBC41058
:1095000001EBC00090ED4B0A04EB4400C0EBC4102B
:1095100001EBC00080ED4C0A04EB4400C0EBC4102A
:1095200001EBC00090ED160B04EB4400C0EBC4103F
:1095300001EBC00090ED3E1B30EE010BB0EE001BC6
:1095400080EE012B04EB4400C0EBC41001EBC00023
:1095500080ED782B04EB4400C0EBC41001EBC0009D
:1095600090ED161B04EB4400C0EBC41001EBC000EF
:1095700090ED400AB7EEC00A31EE000BB0EE001BD2
:1095800080EE012BB7EEC20B04EB4400C0EBC4101D
:1095900001EBC00080ED7A0A10BD000078B901200F
:1095A00000007A4410B5044604EB4400C0EBC4103C
:1095B000F34901EBC00090ED000BB7EEC00B04EBDC
:1095C0004400C0EBC41001EBC00080ED110A04EBB5
:1095D0004400C0EBC41001EBC00090ED110A04EB95
:1095E0004400C0EBC41001EBC000D0ED120A30EE15
:1095F000600ADFEDE40A20EE200A04EB4400C0EB31
:10960000C41001EBC00080ED140A04EB4400C0EB71
:10961000C41001EBC00090ED140A04EB4400C0EB51
:10962000C41001EBC0001C3004EB4401C1EBC411B9
:10963000D34A02EBC10191F87C1300EB810080ED6D
:10964000000A04EB4400C0EBC410114601EBC0005B
:109650001C3004EB4401C1EBC41102EBC10191F8D1
:109660007C1300EB810090ED000A04EB4400C0EB9A
:10967000C410114601EBC000D0ED130A30EE200AF1
:1096800004EB4400C0EBC41001EBC0001C3004EB41
:109690004401C1EBC41102EBC10191F87D1300EB51
:1096A0008100D0ED000A30EE600A04EB4400C0EB0C
:1096B000C410114601EBC00080ED130A04EB440016
:1096C000C0EBC41001EBC00090ED130AF2EE040AE7
:1096D00080EE201AB7EEC10A04EB4400C0EBC410C0
:1096E00001EBC00080ED040B04EB4400C0EBC410A0
:1096F00001EBC00090ED041BB0EE410B20460CF0D6
:1097000015FB04EB4400C0EBC4109D4901EBC00005
:1097100080ED060A04EB4400C0EBC41001EBC0006E
:1097200090ED110A04EB4400C0EBC41001EBC00043
:1097300080ED120A04EB4400C0EBC41001EBC00042
:1097400090ED040B04EB4400C0EBC41001EBC0002F
:1097500080ED7C0B04EB4400C0EBC41001EBC000B7
:1097600090ED060A04EB4400C0EBC41001EBC0000E
:1097700080ED7E0A012C7CD104EB4400C0EBC410C8
:1097800001EBC00090ED280BB7EEC00B04EB4400DA
:10979000C0EBC41001EBC00080ED390A04EB4400BB
:1097A000C0EBC41001EBC00090ED390A04EB44009B
:1097B000C0EBC41001EBC000D0ED3A0A30EE600AF5
:1097C000DFED700A20EE200A04EB4400C0EBC41069
:1097D00001EBC00080ED3C0A04EB4400C0EBC41078
:1097E00001EBC00090ED3C0A04EB4400C0EBC41058
:1097F00001EBC000BC3004EB4401C1EBC411604A72
:1098000002EBC10191F87C1300EB810080ED000AAE
:1098100004EB4400C0EBC410114601EBC000BC30A7
:1098200004EB4401C1EBC41102EBC10191F87C13BC
:1098300000EB810090ED000A04EB4400C0EBC41083
:10984000114601EBC000D0ED3B0A30EE200A04EBDC
:109850004400C0EBC41001EBC000BC3004EB440179
:10986000C1EBC41102EBC10191F87D1300EB810043
:1098700000E084E0D0ED000A30EE600A04EB440022
:10988000C0EBC410114601EBC00080ED3B0A04EBB5
:109890004400C0EBC41001EBC00090ED3B0AF2EEB7
:1098A000040A80EE201AB7EEC10A04EB4400C0EBB4
:1098B000C41001EBC00080ED2C0B04EB4400C0EBA6
:1098C000C41001EBC00090ED2C1BB0EE410B204604
:1098D0000CF02CFA04EB4400C0EBC410284901EB57
:1098E000C00080ED2E0A04EB4400C0EBC41001EB75
:1098F000C00090ED390A04EB4400C0EBC41001EB4A
:10990000C00080ED3A0A04EB4400C0EBC41001EB48
:10991000C00090ED040B04EB4400C0EBC41001EB5D
:10992000C00090ED2C1B30EE010BB0EE001B80EE62
:10993000012B04EB4400C0EBC41001EBC00080ED30
:109940007C2B04EB4400C0EBC41001EBC00090ED95
:10995000060A04EB4400C0EBC41001EBC000D0EDDC
:109960002E0A30EE200AF0EE000A80EE201A04EBF8
:109970004400C0EBC41001EBC00080ED7E1A10BDA6
:1099800078B9012000007A4410B5044604EB440085
:10999000C0EBC410284901EBC00090ED540BB7EEAA
:1099A000C00B04EB4400C0EBC41001EBC00080ED21
:1099B000730A04EB4400C0EBC41001EBC00090ED4F
:1099C000730A04EB4400C0EBC41001EBC000D0EDFF
:1099D000740A30EE600AB7EEC00A04EB4400C0EB34
:1099E000C41001EBC00080ED660B04EB4400C0EB3B
:1099F000C41001EBC00090ED730A04EB4400C0EB0F
:109A0000C41001EBC00080ED740A04EB4400C0EB0D
:109A1000C41001EBC00090ED661BB0EE410B204678
:109A20000CF084F904EB4400C0EBC410024901EBD4
:109A3000C00080ED680A10BD78B9012010B5044659
:109A400024B1012C18D0022C44D12CE02E480068FF
:109A500000EE100AB8EE400ADFED2C0A80EE801A04
:109A6000B7EEC10A04EB4400C0EBC410284901EB77
:109A7000C00080ED540B2DE04FF08040C06A00EE36
:109A8000100AB8EE400ADFED210A80EE801AB7EE28
:109A9000C10A04EB4400C0EBC4101D4901EBC00037
:109AA00080ED540B16E04FF08040C06A00EE100AC3
:109AB000B8EE400ADFED150A80EE801AB7EEC10A53
:109AC00004EB4400C0EBC410114901EBC00080ED71
:109AD000540B00BF00BF04EB4400C0EBC4100C49A2
:109AE00001EBC00090ED541BB0EE410B20460CF092
:109AF0001DF904EB4400C0EBC410054901EBC000A4
:109B000080ED560A10BD00002C0C004060FECD4CCC
:109B100078B9012010B5044614B1012C7ED181E141
:109B2000FE48406A81B204EB4400C0EBC410FC4A1A
:109B300002EBC000A0F8501304EB4400C0EBC410CB
:109B4000114601EBC000B0F8521304EB4400C0EB27
:109B5000C41002EBC000B0F85003091A04EB440033
:109B6000C0EBC41002EBC000C0F84C1304EB44007F
:109B7000C0EBC410114601EBC000D0F84C03002824
:109B800009DD012104EB4400C0EBC41002EBC0006E
:109B9000C0F8481320E004EB4400C0EBC410E049D7
:109BA00001EBC000D0F84C0300280BDA4FF0FF3176
:109BB00004EB4400C0EBC410D94A02EBC000C0F86B
:109BC000481309E0002104EB4400C0EBC410D44A60
:109BD00002EBC000C0F8481304EB4401C1EBC41110
:109BE000CF4A02EBC101D1F84C03002801DB01464A
:109BF00000E04142B1F5FA6F1CDB04EB4400C0EB1E
:109C0000C410C74901EBC000D0F8541304EB440062
:109C1000C0EBC410C24A02EBC00000E0FDE3D0F884
:109C20004803014404EB4400C0EBC41002EBC00045
:109C3000C0F8541304EB4400C0EBC410B84901EB66
:109C4000C000B0F8501304EB4400C0EBC410B44A99
:109C500002EBC000A0F8521304EB4400C0EBC410A8
:109C6000114601EBC000D0F85403002853DA04EB8E
:109C70004400C0EBC41001EBC000B0F8500300EE8C
:109C8000100AB8EE400AB7EEC01AB0EE002B81EE13
:109C9000020B9FEDA41B31EE400BF7EEC00B04EB63
:109CA0004400C0EBC41001EBC00090EDD61A04EBE9
:109CB0004400C0EBC41001EBC000D0F85403401CBA
:109CC00000EE100AB8EEC00ADFED981A20EE210A65
:109CD00000EEC10AB7EEC00A04EB4400C0EBC410AA
:109CE00001EBC00080ED000B04EB4400C0EBC4109E
:109CF00001EBC00090ED001BB0EE410B20460CF0D4
:109D000015F804EB4400C0EBC410854901EBC0001A
:109D100080ED020A4EE004EB4400C0EBC410804921
:109D200001EBC000B0F8500300EE100AB8EE400A94
:109D3000B7EEC00AB0EE002B80EE021B04EB44002D
:109D4000C0EBC41001EBC00090EDD50AB8EEC00A1C
:109D5000DFED760A20EE200AB7EEC00A31EE001BD6
:109D600004EB4400C0EBC41001EBC00090EDD60A38
:109D7000B7EEC00A21EE000B04EB4400C0EBC410A8
:109D800001EBC00080ED000B04EB4400C0EBC410FD
:109D900001EBC00090ED001BB0EE410B20460BF034
:109DA000C5FF04EB4400C0EBC4105D4901EBC000EB
:109DB00080ED020A04EB4400C0EBC410584901EBEB
:109DC000C00090ED501BB0EE410B20460BF0AEFFF3
:109DD00004EB4400C0EBC410514901EBC00080ED1E
:109DE000520A04EB4400C0EBC41001EBC00090ED3C
:109DF000000B04EB4400C0EBC41001EBC00080ED8D
:109E0000800B04EB4400C0EBC41001EBC00090EDEC
:109E1000020A04EB4400C0EBC41001EBC00080ED6B
:109E2000820A18E34248006881B204EB4400C0EBA8
:109E3000C4103B4A02EBC000A0F8501304EB4400EE
:109E4000C0EBC410114601EBC000B0F8521304EB94
:109E50004400C0EBC41002EBC000B0F85003091A74
:109E600004EB4400C0EBC41002EBC000C0F84C137C
:109E700004EB4400C0EBC410114601EBC000D0F865
:109E80004C03002809DD012104EB4400C0EBC410A1
:109E900002EBC000C0F8481320E004EB4400C0EB24
:109EA000C4101F4901EBC000D0F84C0300280BDAA6
:109EB0004FF0FF3104EB4400C0EBC410184A02EB32
:109EC000C000C0F8481309E0002104EB4400C0EBD7
:109ED000C410134A02EBC000C0F8481304EB44015D
:109EE000C1EBC4110E4A02EBC101D1F84C030028AA
:109EF00001DB014600E04142B1F5FA6F27DB04EBDC
:109F00004400C0EBC410064901EBC000D0F8541364
:109F100004EB4400C0EBC410014A0BE00000014018
:109F200078B90120000000000088A34000401C45D3
:109F30002404004002EBC000D0F84803014404EBC5
:109F40004400C0EBC41002EBC000C0F8541304EB93
:109F50004400C0EBC410FE4901EBC000B0F8501340
:109F600004EB4400C0EBC410F94A02EBC000A0F8B7
:109F7000521304EB4400C0EBC410114601EBC000C7
:109F8000D0F85403002853DA04EB4400C0EBC410AB
:109F900001EBC000B0F8500300EE100AB8EE400A22
:109FA000B7EEC00AB0EE001B80EE012B1FED230BB5
:109FB00030EE420BB7EEC00B04EB4400C0EBC41014
:109FC00001EBC000D0F85403401C00EE900AF8EEFC
:109FD000E00A1FED2A1A10EE810A04EB4400C0EBE0
:109FE000C41001EBC000D0EDD60A20EE200AB7EE77
:109FF000C00A04EB4400C0EBC41001EBC00080EDCC
:10A00000000B04EB4400C0EBC41001EBC00090ED6A
:10A01000001BB0EE410B20460BF088FE04EB440021
:10A02000C0EBC410CA4901EBC00080ED020A4EE04B
:10A0300004EB4400C0EBC410C54901EBC000B0F80C
:10A04000500300EE100AB8EE400AB7EEC00AB0EEB8
:10A05000002B80EE021B04EB4400C0EBC41001EBAC
:10A06000C00090EDD50AB8EEC00A5FED500A20EEB0
:10A07000200AB7EEC00A31EE001B04EB4400C0EB2F
:10A08000C41001EBC00090EDD60AB7EEC00A21EE75
:10A09000000B04EB4400C0EBC41001EBC00080EDEA
:10A0A000000B04EB4400C0EBC41001EBC00090EDCA
:10A0B000001BB0EE410B20460BF038FE04EB4400D1
:10A0C000C0EBC410A24901EBC00080ED020AA14818
:10A0D000006881B204EB4400C0EBC4109C4A02EB60
:10A0E000C000A0F86C1304EB4400C0EBC410114690
:10A0F00001EBC000B0F86E1304EB4400C0EBC410D9
:10A1000002EBC000B0F86C03091A04EB4400C0EB8A
:10A11000C41002EBC000C0F8681304EB4400C0EBAD
:10A12000C410114601EBC000D0F86803002809DD17
:10A13000012104EB4400C0EBC41002EBC000C0F8E6
:10A14000641320E004EB4400C0EBC410804901EB31
:10A15000C000D0F8680300280BDA4FF0FF3104EBA1
:10A160004400C0EBC4107A4A02EBC000C0F864138C
:10A1700009E0002104EB4400C0EBC410744A02EB78
:10A18000C000C0F8641304EB4401C1EBC411704A71
:10A1900002EBC101D1F86803002801DB014600E0B1
:10A1A0004142B1F5FA6F1ADB04EB4400C0EBC41076
:10A1B000674901EBC000D0F8701304EB4400C0EB1A
:10A1C000C410634A02EBC000D0F86403014404EBFE
:10A1D0004400C0EBC41002EBC000C0F8701304EBE5
:10A1E0004400C0EBC4105A4901EBC000B0F86C1336
:10A1F00004EB4400C0EBC410554A02EBC000A0F8C9
:10A200006E1304EB4400C0EBC410114601EBC00018
:10A21000D0F87003002853DA04EB4400C0EBC410FC
:10A2200001EBC000B0F86C0300EE100AB8EE400A73
:10A23000B7EEC00AB0EE002B80EE021B1FEDC70B7D
:10A2400030EE410BB7EEC00B04EB4400C0EBC41082
:10A2500001EBC000D0F87003401C00EE900AF8EE4D
:10A26000E00A1FEDCE1A10EE810A04EB4400C0EBA9
:10A27000C41001EBC000D0EDDD0A20EE200AB7EEDD
:10A28000C00A04EB4400C0EBC41001EBC00080ED39
:10A29000280B04EB4400C0EBC41001EBC00090EDB0
:10A2A000281BB0EE410B20460BF02EFD04EB4400C2
:10A2B000C0EBC410264901EBC00080ED2A0A54E02F
:10A2C00004EB4400C0EBC410214901EBC000B0F81E
:10A2D0006C0300EE100AB8EE400AB7EEC00AB0EE0A
:10A2E000002B80EE021B04EB4400C0EBC41001EB1A
:10A2F000C00090EDDC0AB8EEC00A5FEDF40A20EE73
:10A30000200AB7EEC00A31EE000B04EB4400C0EBAC
:10A31000C41001EBC00090EDDD1AB7EEC11A20EEBB
:10A32000010B04EB4400C0EBC41001EBC00080ED56
:10A33000280B04EB4400C0EBC41001EBC00090ED0F
:10A34000281BB0EE410B20460BF0DEFC04E00000C1
:10A3500078B901202408004004EB4400C0EBC4108D
:10A360003E4901EBC00080ED2A0A04EB4400C0EB3B
:10A37000C4103A4901EBC00090ED501BB0EE410B08
:10A3800020460BF0C1FC04EB4400C0EBC410334981
:10A3900001EBC00080ED520A04EB4400C0EBC41096
:10A3A00001EBC00090ED000B04EB4400C0EBC410C7
:10A3B00001EBC00090ED281B30EE010BB0EE001B4E
:10A3C00080EE012B04EB4400C0EBC41001EBC00095
:10A3D00080ED802B04EB4400C0EBC41001EBC00007
:10A3E00090ED020A04EB4400C0EBC41001EBC00086
:10A3F000D0ED2A0A30EE200AF0EE000A80EE201A94
:10A4000004EB4400C0EBC41001EBC00080ED821AE5
:10A4100004EB4400C0EBC41000E01CE001EBC00002
:10A4200090ED020A04EB4400C0EBC41001EBC00045
:10A43000D0ED2A0A30EE600AB7EEC00AB0EEC00BCB
:10A44000B7EEC00B04EB4400C0EBC41001EBC0003E
:10A4500080EDD80A00BF00BF10BD000078B9012010
:10A4600010B504462046FFF7E9FA2046FFF78CFABC
:10A470002046FFF797F82046FEF7B0FE04EB4400B5
:10A48000C0EBC410264901EBC00090F87C03401CCF
:10A49000C1B204EB4400C0EBC410214A02EBC0007F
:10A4A00080F87C1304EB4400C0EBC410114601EBB0
:10A4B000C00090F87D03401CC1B204EB4400C0EB27
:10A4C000C41002EBC00080F87D1304EB4400C0EB25
:10A4D000C410114601EBC00090F87C030A2808DB89
:10A4E000002104EB4400C0EBC41002EBC00080F874
:10A4F0007C1304EB4400C0EBC410094901EBC0001D
:10A5000090F87D030A2809DB002104EB4400C0EB2E
:10A51000C410034A02EBC00080F87D1310BD000098
:10A5200078B9012010B5044604EB4400C0EBC41018
:10A53000B84901EBC00090F8F50220BB002104EB04
:10A540004400C0EBC410B34A02EBC00080F8F8121C
:10A5500014B1012C0ED106E000224FF48051AE4818
:10A5600000F060FF06E000224FF40051AA4800F01E
:10A5700059FF00BF00BF41F28831204603F0CEFEF4
:10A58000204603F031FF00BF04EB4400C0EBC410D1
:10A59000A04901EBC00090F8F50248B904EB440073
:10A5A000C0EBC41001EBC00090F8F9020528EBD015
:10A5B000204604F051F9012C46D198480078C0F3A8
:10A5C0008000E8B195480078C0F3C000D8BB4FF4D4
:10A5D0002F70A107886300BF90480078C0F3C000C7
:10A5E00050B904EB4400C0EBC4108A4901EBC00031
:10A5F00090F8F9020528EFD0204604F02DF922E06A
:10A6000086480078C0F3C000E8B184480078C0F301
:10A610008000C0B94FF42F704FF08041486300BFF5
:10A620007E480078C0F3800050B904EB4400C0EBD2
:10A63000C410784901EBC00090F8F9020528EFD06A
:10A64000204604F009F900BF00BF322008F058FC92
:10A65000022104EB4400C0EBC4106E4A02EBC000C0
:10A6600080F8F81214B1012C0CD105E0012211037D
:10A67000694800F0D7FE05E001225103664800F06A
:10A68000D1FE00BF00BF204603F0AEFE00BF04EBCA
:10A690004400C0EBC4105F4901EBC00090F8F50224
:10A6A00048B104EB4400C0EBC41001EBC00090F8CB
:10A6B000F9020528EBD04FF4967008F021FC2046F3
:10A6C00004F0CAF8C82008F01BFC20460AF0D6FEA9
:10A6D000204602F0F7FE002104EB4400C0EBC4105A
:10A6E0004C4A02EBC00080F8F81214B1012C0ED1D4
:10A6F00006E000224FF48051474800F093FE06E048
:10A7000000224FF40051444800F08CFE00BF00BF0F
:10A71000204603F069FE00BF04EB4400C0EBC41008
:10A720003C4901EBC00090F8F50248B904EB440045
:10A73000C0EBC41001EBC00090F8F9020528EBD083
:10A74000204604F089F8642008F0DAFB022104EBCB
:10A750004400C0EBC4102F4A02EBC00080F8F8128E
:10A7600014B1012C0CD105E0012211032A4800F09C
:10A7700059FE05E001225103274800F053FE00BFB7
:10A7800000BF40F27261204603F0C8FD204603F08E
:10A790002BFE00BF04EB4400C0EBC4101D4901EBCD
:10A7A000C00090F8F50248B104EB4400C0EBC410BF
:10A7B00001EBC00090F8F9020528EBD0642008F006
:10A7C0009FFB204604F048F84FF4AF7008F098FB68
:10A7D00020460AF053FE002104EB4400C0EBC410F5
:10A7E0000C4A02EBC00080F8F91204EB4400C0EB05
:10A7F000C410114601EBC000D0F8F00220F0400078
:10A80000403004EB4401C1EBC41102EBC101C1F8BB
:10A81000F00210BD78B9012000140240EB010020C5
:10A8200031B5002400F004FE044600BF00F000FE35
:10A83000001B00998842F9D338BD70B504460D4617
:10A840001646002200BF94F84500012801D10220DD
:10A8500070BD012084F8450000BF022084F8440048
:10A86000A56200221FE005EB42114FF00040086096
:10A8700044F2F4504860C2EBC21000EB400006EB1B
:10A8800080008860A069012803D1486820F000405A
:10A890004860581E904204D905EB42102030C86031
:10A8A00000E0CD60521C9A42DDD3206800F5805054
:10A8B000C560012084F8440000BF002084F84500F2
:10A8C00000BF00BFC4E770B504460D46164600221F
:10A8D00000BF94F84500012801D1022070BD01207D
:10A8E00084F8450000BF022084F84400E56200229D
:10A8F0001BE005EB42114FF480100860C2EBC21060
:10A9000000EB400006EB80008860E06918B9086839
:10A9100040F440000860581E904204D905EB4210F4
:10A920002030C86000E0CD60521C9A42E1D320681C
:10A9300000F580500561012084F8440000BF00202C
:10A9400084F8450000BF00BFC8E7704701460022F9
:10A9500000BF91F84500012801D102207047012075
:10A9600081F8450000BF022081F844003AE0521C03
:10A97000886A006800F44070B0F5007F07D1886AEB
:10A98000086301238B63886AC06888622AE0886A4A
:10A99000006800F4407030B9886B401C8863886A96
:10A9A000C06888621EE08B6A4B63886B401C8863BA
:10A9B000886B012801D1886A0863886A0068C0F33F
:10A9C0000D40001FC863086B83680B64886AC06809
:10A9D0008862012081F8440000BF002081F8450012
:10A9E00000BFBBE7886A006800F0004008B9042A8D
:10A9F000BDD3012081F8440000BF002081F845004C
:10AA000000BF0120AAE710B50446206800F5805079
:10AA1000406900F0400040280FD1204600F060FA65
:10AA20004021206800F580504161012084F84400F5
:10AA300000BF002084F8450016E0206800F5805033
:10AA4000406900F0010078B1204600F01BFB0121B5
:10AA5000206800F580504161012084F8440000BF67
:10AA6000002084F8450000BF4FF48031206800F5D5
:10AA700080504161206800F58050406900F400403A
:10AA8000B0F5004F10D12046FFF75FFF4FF40041B3
:10AA9000206800F580504161012084F8440000BF27
:10AAA000002084F8450000BF10BD00002DE9FC41E6
:10AAB00004460025002001909C4E0027804614B9D2
:10AAC0000120BDE8FC8194F8440028B9002084F8F6
:10AAD0004500204600F038F900BF9548006840F472
:10AAE0008040934908600846006800F48040009068
:10AAF00000BF00BF8F48006820F400008D49086047
:10AB000008460068216A08438A490860206800F501
:10AB10008050006840F00101206800F5805001601D
:10AB200000F086FC07460FE000F082FCC01BB0F589
:10AB3000FA7F09D9032084F8440000BF002084F87C
:10AB4000450000BF0320BCE7206800F58050006886
:10AB500000F001000028E7D12068056925F01C05F8
:10AB600001F010FB06467448864205D373488642BE
:10AB700002D245F008051AE07048864205D36B48BA
:10AB8000864202D245F00C0511E06848864203D3A4
:10AB90006B48864200D20AE06948864205D369487C
:10ABA000864202D245F0040501E045F01005206818
:10ABB00005614FF400420021204600F064FA48B1DC
:10ABC0004FF0010841462046FEF78AF8012084F83C
:10ABD000440076E7FF20FFF723FE6068002871D06D
:10ABE00000F026FC074600BF01AA0121204600F024
:10ABF0002DF900F01DFCC01B41F2883188420FD9AD
:10AC00004FF0010841462046FEF76AF8012084F81B
:10AC1000440000BF002084F8450000BF032050E737
:10AC2000019800F004000428DED1820200212046B1
:10AC300000F029FA48B14FF0010841462046FEF7DE
:10AC40004FF8012084F844003BE700F0F1FB074691
:10AC500000BF01AA0121204600F0F8F800F0E8FB4F
:10AC6000C01B41F2883188420FD94FF0010841469C
:10AC70002046FEF735F8012084F8440000BF00208C
:10AC800084F8450000BF03201BE7019800F0200076
:10AC90002028DED101AA1021204600F0D7F848B1C3
:10ACA0004FF0010841462046FEF71AF8012084F8CB
:10ACB000440006E7019800F0040020B14FF4006161
:10ACC000E16002E00DE00021E160019800F0020087
:10ACD000022802D10021A1601EE04FF48041A16052
:10ACE0001AE0E068C0F3CF00A168C1F34F0140EA69
:10ACF00001020021204600F0C6F948B14FF00108DA
:10AD000041462046FDF7ECFF012084F84400D8E6D8
:10AD100040F6FF70FFF784FD41462046FDF7E0FF57
:10AD2000012084F844000020CBE600000087930354
:10AD30004438024004380140002D3101C00E160293
:10AD400000E1F50580D1F00810B586B00446394918
:10AD5000206888426BD100BF00BF3748006840F0D0
:10AD60000070354908600846006800F000700090E7
:10AD700000BF00BF00BF0846006840F08060086068
:10AD80000846006800F08060009000BF00BF00BF70
:10AD90000846006840F0006008600846006800F05F
:10ADA0000060009000BF00BF00BF32200190022071
:10ADB000029000200390032004900B20059001A92D
:10ADC0001E4800F01BFA862001900220029000200D
:10ADD0000390032004900B20059001A9184800F06F
:10ADE0000DFA4FF4005001900220029000200390D1
:10ADF000032004900B20059001A9124800F0FEF9F1
:10AE00004FF4205001900220029000200390032074
:10AE100004900B20059001A90B4800F0EFF90022E7
:10AE200005213D2000F079FB3D2000F069FB06B0D4
:10AE300010BD00000080024030380240000802408F
:10AE40000000024000040240001802402DE9F041D9
:10AE500004460E4617460025A84694F8440082286A
:10AE600002D10220BDE8F081822084F844002068ED
:10AE7000056905F01C05208A4FF4784101EAC020DD
:10AE80000543481100EA8610054325F0020545F008
:10AE900001052068056100F0CBFA804612E000F061
:10AEA000C7FAA0EB0800B0F5803F09D3012084F871
:10AEB000440000BF002084F8450000BF0320D1E714
:10AEC0002068056905F001000028E8D12068406984
:10AED00080B23860012084F844000020C2E70000FE
:10AEE00010B504460248006808F04CF910BD000097
:10AEF0004001002010B5044600BF94F84500012829
:10AF000001D1022010BD012084F8450000BF0220BD
:10AF100084F844002046FEF719F82046FEF702F8B0
:10AF20002046FDF79FFE2046FDF791FE2046FDF7E7
:10AF300083FE012084F8440000BF002084F845000F
:10AF400000BF00BFDEE770B50246002300250024E5
:10AF500000BF92F84500012801D1022070BD0120F8
:10AF600082F8450000BF022082F8440049B9012060
:10AF700082F8440000BF002082F8450000BF012095
:10AF8000ECE7D06A006800F0004048B1122082F877
:10AF9000440000BF002082F8450000BF0120DDE72B
:10AFA00040F2F450814208D9B1FBF0F3B1FBF0F666
:10AFB00000FB161010B15B1C00E00123012B13D124
:10AFC000D06A006840F04050D66A3060C1F30C008F
:10AFD000D66A7060D06A006840F00040D66A30607F
:10AFE000D06AC068D06232E000242EE0D06A0068E7
:10AFF00020F04050D66A30602CB9D06A006840F02A
:10B000008050D66A306040F2F450D66A7060581EA4
:10B01000A04210D1D06A006840F00050D66A30607B
:10B02000581EC0EBC01000EB4000A1EB8005C5F33B
:10B030000C00D66A7060D06A006840F00040D66AA2
:10B040003060D06AC068D062641C9C42CED3106865
:10B0500000F58050406900F0040048B104261068F3
:10B0600000F5805046610026106800F5805046606B
:10B07000012082F8440000BF002082F8450000BF94
:10B0800000BF6BE770472DE9F04104460E461746B6
:10B090000025A84694F84400422802D10220BDE8C9
:10B0A000F081422084F844002068056905F01C0501
:10B0B000208A4FF4784101EAC0200543481100EA94
:10B0C0008610054345F0020545F00105B8B2216838
:10B0D00048612068056100F0ABF9804612E000F09D
:10B0E000A7F9A0EB0800B0F5803F09D3012084F850
:10B0F000440000BF002084F8450000BF0320CEE7D5
:10B100002068056905F001000028E8D1012084F8D5
:10B1100044000020C3E700000348006840F00040FE
:10B120000149086000207047103C02402DE9F041C1
:10B1300006460F4614461D464FF0010800BF224840
:10B14000007D012802D10220BDE8F08101201E49C6
:10B15000087500BF4CF25030FEF70EF88046B8F18B
:10B16000000F29D136B1012E09D0022E0CD0032EAA
:10B1700015D10EE0E1B23846FDF74EFF10E0A1B266
:10B180003846FDF781FF0BE021463846FDF798FF72
:10B1900006E022462B463846FDF758FF00E000BF88
:10B1A00000BF4CF25030FDF7E7FF804607480068CB
:10B1B00020F001000549086000BF00200249087521
:10B1C00000BF4046C0E7000000870120103C02405D
:10B1D0000748006800F0004030B1064804490C39C7
:10B1E00008600548086001E0012070470020FCE786
:10B1F000103C024023016745AB89EFCDF8B502460C
:10B200000B46002100250024002000BFE4E00126B9
:10B2100006FA01F51E6806EA0504AC4271D15E68C3
:10B22000022E02D05E68122E13D1CF0802F1200642
:10B2300056F827004E07F70E0F26BE40B0434F07C3
:10B24000FF0E1E69BE403043CF0802F1200646F8CB
:10B25000270010684F000326BE40B0431E7906F059
:10B2600003064F00BE40304310605E68012E08D0D8
:10B270005E68022E05D05E68112E02D05E68122E26
:10B2800013D190684F000326BE40B0434F00DE68E4
:10B29000BE4030439060506801268E40B0431E7916
:10B2A000C6F300168E4030435060D0684F0003262E
:10B2B000BE40B0434F009E68BE403043D0605E68E1
:10B2C00006F08056B6F1805FA8D100BF444E3668C4
:10B2D00046F48046424F3E603E46366806F480465D
:10B2E000009600BF00BF3F4E8F0856F827008E071C
:10B2F000370F0F26BE40B0433B4EB24202D100266C
:10B300002EE068E0394EB24201D1012628E0384EE5
:10B31000B24201D1022623E0364EB24201D10326C9
:10B320001EE0354EB24201D1042619E0334EB2423E
:10B3300001D1052614E0324EB24201D106260FE0BB
:10B34000304EB24201D107260AE02F4EB24201D15F
:10B35000082605E02D4EB24201D1092600E00A265A
:10B360008F073F0FBE4030431E4E8F0846F8270020
:10B37000274E3068A0435E6806F48036B6F5803FFD
:10B3800000D12043224E3060361D3068A0435E68F5
:10B3900006F40036B6F5003F00D120431C4E361DA2
:10B3A0003060361D3068A0435E6806F48016B6F53E
:10B3B000801F00D12043164E08363060361D30689D
:10B3C000A0435E6806F40016B6F5001F00D12043C6
:10B3D0000F4E0C363060491C1029FFF418AFF8BD31
:10B3E0004438024008380140000002400004024096
:10B3F00000080240000C024000100240001402400D
:10B4000000180240001C02400020024000240240BC
:10B41000003C0140024613690B400BB1012000E0E3
:10B42000002070470AB1816101E00B04836170471D
:10B430000148006870470000380100200248006899
:10B44000401C0149086070473801002010B50320F6
:10B4500000F0A2F80F2000F005F800F017F8002027
:10B4600010BD000070B50446074800684FF47A71BB
:10B47000B0FBF1F5284601F0D1F900222146501E1B
:10B4800000F04BF8002070BD3C01002010B50320F7
:10B4900000F082F8002211466FF00B0000F03DF83A
:10B4A000002211466FF00A0000F037F80022114622
:10B4B0006FF0090000F031F800221146501F00F033
:10B4C0002CF800221146101F00F027F800220F214F
:10B4D000901E00F022F800220F21501E00F01DF8EF
:10B4E00010BD000000BF00F01F0201219140034A7F
:10B4F000430942F8231000BF7047000080E100E0DC
:10B5000000BF00F01F02012191404209920002F1A8
:10B51000E022C2F8001100BF70472DE9F05F8046BD
:10B520000D461646002701F0B1FF074639462A4668
:10B53000334601F00700C0F1070ABAF1040F02D93F
:10B540004FF0040A01E0C0F1070AD14600F1040AF5
:10B55000BAF1070F02D24FF0000A01E0A0F1030A8E
:10B56000D4464FF0010A0AFA09FAAAF1010A0AEAD6
:10B57000020A0AFA0CFA4FF0010B0BFA0CFBABF1C2
:10B58000010B0BEA030B4AEA0B042146404601F08B
:10B5900085FFBDE8F09F000000BF00F00702064BEA
:10B5A00019684FF6FF031940044B0B4343EA02218D
:10B5B000014B196000BF70470CED00E00000FA0578
:10B5C00038B5002400BF2048006840F080501E4974
:10B5D00008600846006800F08050009000BF00BF7F
:10B5E0001A48006840F4803018490860FFF720FFCF
:10B5F000044607E0FFF71CFF001BB0F57A7F01D976
:10B60000032038BD1148406800F48030B0F5803F19
:10B61000F0D10E48006840F400300C490860FFF794
:10B6200007FF044607E0FFF703FF001BB0F57A7F32
:10B6300001D90320E5E70548406800F40030B0F583
:10B64000003FF0D10020DCE74038024000700040AD
:10B650002DE9F8430446002600250027A846A94600
:10B66000207800F0010088B100BFFE48006820F497
:10B670000000FC49086008460068616B0843F9490E
:10B68000086000BF606B08B94FF00108206800F443
:10B690000020B0F5002F13D1F2488430006820F468
:10B6A0004010E16B0843EF4984310860E06BB0F56E
:10B6B000801F01D14FF00108E06B08B94FF001097C
:10B6C000206800F48010B0F5801F13D1E548843065
:10B6D000006820F44000216C0843E249843108608E
:10B6E000206CB0F5800F01D14FF00108206C08B933
:10B6F0004FF00109206800F08070B0F1807F01D127
:10B700004FF00108207800F02000202870D100BF01
:10B71000D4483830006840F08050D2493831086051
:10B720000846006800F08050009000BF00BFCE487F
:10B73000006840F48070CC490860FFF779FE064647
:10B7400007E0FFF775FE801B642802D90320BDE8DF
:10B75000F883C548006800F480700028F1D0C14823
:10B760006830006800F4407585B3208E00F44070A6
:10B77000A8422BD0BB486830006820F44075B94817
:10B780006830006840F48030B64968310860084687
:10B79000006820F48030086008460560006800F00A
:10B7A000010098B1FFF744FE064608E0FFF740FEAF
:10B7B000801B41F28831884201D90320C7E7A9489C
:10B7C00068300068C0F340000028EFD000BF208E32
:10B7D00000F44070B0F5407F0BD1A248006820F41F
:10B7E000F810A24A216B114008439E49086006E008
:10B7F00010E09C48006820F4F8109A4908609948C5
:10B8000068300068218EC1F30B0108439549683107
:10B81000086000BF207800F01000102810D100BF91
:10B8200090488430006820F080708E498431086030
:10B8300008460068A16B08438A498431086000BF4C
:10B84000208800F48040B0F5804F09D185488830C9
:10B85000006820F44030616E0843824988310860F6
:10B86000208800F40040B0F5004F09D17D488830B1
:10B87000006820F44020A16E08437A4988310860AE
:10B88000206800F48030B0F5803F09D175488830D9
:10B89000006820F44010E16E084372498831086066
:10B8A000206800F40030B0F5003F09D16D488830C1
:10B8B000006820F44000216F08436A49883108601D
:10B8C000207800F04000402809D1664888300068A0
:10B8D00020F00300616C08436249883108602078D9
:10B8E00000F08000802809D15E488830006820F090
:10B8F0000C00A16C08435B4988310860208800F483
:10B900008070B0F5807F09D156488830006820F0FB
:10B910003000E16C0843534988310860208800F406
:10B920000070B0F5007F09D14E488830006820F0E3
:10B93000C000216D08434B4988310860208800F41D
:10B940008060B0F5806F09D146488830006820F4E7
:10B950004070616D0843434988310860208800F4D5
:10B960000060B0F5006F09D13E488830006820F4CF
:10B970004060A16D08433B4988310860208800F48D
:10B980008050B0F5805F09D136488830006820F4D7
:10B990004050E16D0843334988310860208800F445
:10B9A0000050B0F5005F09D12E488830006820F4BF
:10B9B0004040216E08432B4988310860206800F41C
:10B9C0008000B0F5800F09D126488830006820F04B
:10B9D0008060A16F0843234988310860206800F423
:10B9E0000010B0F5001F0FD11E488830006820F00D
:10B9F0000060E16F08431B4988310860E06FB0F1D7
:10BA0000006F01D14FF00109207800F008000828EC
:10BA100001D14FF00109206800F48020B0F5802F9B
:10BA200009D110488830006820F04070616F0843E9
:10BA30000C4988310860206800F40000B0F5000F60
:10BA40000AD108488830006820F08050D4F880106F
:10BA50000843044988310860206800F08060B0F134
:10BA6000806F05E00838024000700040FFFCFF0FC7
:10BA700008D1FE48006820F00050D4F88410084334
:10BA8000FA490860206800F00060B0F1006F0AD148
:10BA9000F648001F006820F00070D4F888100843B2
:10BAA000F249091F0860206800F08050B0F1805F03
:10BAB0000AD1EE48001F006820F08060D4F88C1096
:10BAC0000843EA49091F0860B8F1010F03D0206854
:10BAD000B0F1007F7DD1E5489038006820F08060AB
:10BAE000E24990390860FFF7A3FC064606E0FFF73D
:10BAF0009FFC801B642801D9032028E6DB4890388E
:10BB00000068C0F3C0600028F1D1207800F0010087
:10BB1000F0B3606BE0BBD5480C38006800F44030EF
:10BB20004FF4403191FAA1F1B1FA81F120FA01F517
:10BB3000CE480C38006800F070604FF0706191FAE8
:10BB4000A1F1B1FA81F120FA01F747F6C07191FA3B
:10BB5000A1F1B1FA81F1606888404FF4403191FA67
:10BB6000A1F1B1FA81F105FA01F108434FF07061DA
:10BB700091FAA1F1B1FA81F107FA01F108434FF00E
:10BB8000E04292FAA2F2B2FA82F2A168914000E099
:10BB900003E00843B5490C390860206800F4002030
:10BBA000B0F5002F03D1E06BB0F5801F09D02068FD
:10BBB00000F48010B0F5801F50D1206CB0F5800FDC
:10BBC0004CD1AA480C38006800F440304FF44031A2
:10BBD00000E0CFE091FAA1F1B1FA81F120FA01F58C
:10BBE000A2480C38006800F0E0404FF0E04191FAC4
:10BBF000A1F1B1FA81F120FA01F747F6C07191FA8B
:10BC0000A1F1B1FA81F1606888404FF4403191FAB6
:10BC1000A1F1B1FA81F105FA01F108434FF0706228
:10BC200092FAA2F2B2FA82F2E168914008434FF030
:10BC3000E04191FAA1F1B1FA81F107FA01F108436B
:10BC40008A490C3908608948001F006820F01F00ED
:10BC5000616A491E08438549091F0860206800F091
:10BC60008070B0F1807F3FD180480C38006800F0D0
:10BC700070604FF0706191FAA1F1B1FA81F120FA90
:10BC800001F57A480C38006800F0E0404FF0E041E0
:10BC900091FAA1F1B1FA81F120FA01F747F6C071EA
:10BCA00091FAA1F1B1FA81F1606888404FF4403215
:10BCB00092FAA2F2B2FA82F22169914008434FF05F
:10BCC000706191FAA1F1B1FA81F105FA01F108432D
:10BCD0004FF0E04191FAA1F1B1FA81F107FA01F1D7
:10BCE000084362490C390860206800F00070B0F128
:10BCF000007F25D147F6C07191FAA1F1B1FA81F127
:10BD0000606888404FF4403292FAA2F2B2FA82F2AE
:10BD10002169914008434FF0706292FAA2F2B2FAA0
:10BD200082F2E168914008434FF0E04292FAA2F2B9
:10BD3000B2FA82F2A168914008434C490C3908607C
:10BD40004A489038006840F080604849903908605F
:10BD5000FFF76EFB064606E0FFF76AFB801B6428D0
:10BD600001D90320F3E4414890380068C0F3C06073
:10BD70000028F1D0B9F1010F69D13C489038006832
:10BD800020F08050394990390860FFF751FB064692
:10BD900006E0FFF74DFB801B642801D90320D6E4A1
:10BDA000324890380068C0F340700028F1D1206814
:10BDB00000F40020B0F5002F01D1E06B38B120680D
:10BDC00000F48010B0F5801F4FD1206CF0BB2748E5
:10BDD0000838006800F440304FF4403191FAA1F186
:10BDE000B1FA81F120FA01F520480838006800F026
:10BDF000E0404FF0E04191FAA1F1B1FA81F120FA6F
:10BE000001F747F6C07191FAA1F1B1FA81F16069C9
:10BE100088404FF4403191FAA1F1B1FA81F105FA6D
:10BE200001F108434FF0706292FAA2F2B2FA82F284
:10BE3000A169914008434FF0E04191FAA1F1B1FAB4
:10BE400081F107FA01F10843084901E00DE0BBE088
:10BE500008390860081D006820F4F851A06A401EE7
:10BE600041EA00200149091F086001E090380240C2
:10BE7000206800F40010B0F5001F40D1E06FB0F171
:10BE8000006F3CD15148006800F070604FF0706165
:10BE900091FAA1F1B1FA81F120FA01F54B4800685D
:10BEA00000F0E0404FF0E04191FAA1F1B1FA81F1E8
:10BEB00020FA01F747F6C07191FAA1F1B1FA81F1C8
:10BEC000606988404FF4403292FAA2F2B2FA82F2EC
:10BED000216A914008434FF0706191FAA1F1B1FAE3
:10BEE00081F105FA01F108434FF0E04191FAA1F127
:10BEF000B1FA81F107FA01F108433449086020786A
:10BF000000F00800082845D13048006800F0706053
:10BF10004FF0706191FAA1F1B1FA81F120FA01F5C7
:10BF20002A48006800F440304FF4403191FAA1F102
:10BF3000B1FA81F120FA01F747F6C07191FAA1F147
:10BF4000B1FA81F1606988404FF4403191FAA1F172
:10BF5000B1FA81F107FA01F108434FF0706191FAEB
:10BF6000A1F1B1FA81F105FA01F108434FF0E04285
:10BF700092FAA2F2B2FA82F2E169914008431349BF
:10BF80000860081D006820F44030E16A08430F494A
:10BF9000091D08600D488838006840F080500B4942
:10BFA00088390860FFF744FA064606E0FFF740FAD2
:10BFB000801B642801D903209FE504488838006865
:10BFC000C0F340700028F1D0002096E58838024088
:10BFD00070B504460D4600266648006800F00F0064
:10BFE000A8420ED26348006820F00F002843614940
:10BFF00008600846006800F00F00A84201D0012048
:10C0000070BD207800F00200022807D15A4800686D
:10C0100020F0F000A168084357490860207800F03C
:10C020000100002860D06068012807D15248083814
:10C030000068C0F34040A0B90120E1E76068022831
:10C0400007D14D4808380068C0F3406048B9012066
:10C05000D6E7494808380068C0F3400008B9012015
:10C06000CEE74548006820F0030061680843424974
:10C070000860FFF7DDF906466068012810D108E086
:10C08000FFF7D6F9801B41F28831884201D903209D
:10C09000B6E73948006800F00C000428F0D123E02E
:10C0A0006068022810D108E0FFF7C2F9801B41F256
:10C0B0008831884201D90320A2E72F48006800F0A8
:10C0C0000C000828F0D10FE008E0FFF7B1F9801B61
:10C0D00041F28831884201D9032091E7264800685F
:10C0E00000F00C000028F0D12248006800F00F009A
:10C0F000A8420ED91F48006820F00F0028431D49B0
:10C1000008600846006800F00F00A84201D0012036
:10C1100076E7207800F00400042807D1164800686C
:10C1200020F4E050E168084313490860207800F0EB
:10C130000800082808D11048006820F460402169F0
:10C1400040EAC1000C49086000F022F80A49096879
:10C1500001F0F001F02292FAA2F2B2FA82F2D1409A
:10C16000064A515CC840064908600F20FFF77AF97B
:10C17000002045E7003C02400838024034B902087C
:10C180003C01002001480068704700003C0100208D
:10C1900070B50021002200230020274C246804F001
:10C1A0000C0424B1042C04D0082C41D103E0234812
:10C1B00040E023483EE0204C241F246804F03F0167
:10C1C0001D4C241F246804F4800484B11C4CB4FB6F
:10C1D000F1F5194C241F246847F6C076344096FACE
:10C1E000A6F6B6FA86F6F44005FB04F20FE0134C0F
:10C1F000B4FBF1F5104C241F246847F6C076344098
:10C2000096FAA6F6B6FA86F6F44005FB04F20A4C56
:10C21000241F246804F440344FF4403595FAA5F502
:10C22000B5FA85F5EC40641C6300B2FBF3F001E065
:10C23000024800BF00BF70BD083802400024F4006F
:10C2400000127A0070B586B006460C46154636BB1D
:10C2500000BF2748006840F00100254908600846F3
:10C26000006800F00100009000BF00BF8815019039
:10C27000022002900320049000200390059001A961
:10C280001C48FEF7BBFF1A482838006820F0EC6015
:10C2900044EA0501084316492839086025E000BF33
:10C2A0001348006840F0040011490860084600681F
:10C2B00000F00400009000BF00BF4815019002206C
:10C2C00002900320049000200390059001A90A48E1
:10C2D000FEF794FF06482838006820F0784044EACA
:10C2E000C501084302492839086006B070BD000046
:10C2F000303802400000024000080240F8B5044611
:10C3000000250026207800F00100002871D0FD48AB
:10C31000006800F00C0004280DD0FA48006800F016
:10C320000C00082813D1F748001F006800F48000B3
:10C33000B0F5800F0BD1F34808380068C0F34040D7
:10C34000002869D06068002866D10120F8BD00BFD0
:10C350006068B0F5803F08D1EA480838006840F4CA
:10C360008030E849083908602EE0606868B9E5481F
:10C370000838006820F48030E2490839086008462F
:10C38000006820F4802008601EE06068B0F5A02FEF
:10C390000DD1DC480838006840F48020D9490839BC
:10C3A00008600846006840F4803008600CE0D5481A
:10C3B0000838006820F48030D249083908600846FF
:10C3C000006820F48020086000BF606890B1FFF72B
:10C3D0002FF8054606E0FFF72BF8401B642801D92B
:10C3E0000320B3E7C74808380068C0F3404000287E
:10C3F000F1D011E0FFF71CF8054606E0FFF718F84A
:10C40000401B642801D90320A0E7BE480838006813
:10C41000C0F340400028F1D1207800F0020002284B
:10C4200073D1B848006800F00C0058B1B5480068F6
:10C4300000F00C00082821D1B248001F006800F469
:10C440008000D8B9AF4808380068C0F3400020B178
:10C45000E068012801D0012078E7AA480838006880
:10C4600020F0F800F82292FAA2F2B2FA82F22169E0
:10C4700091400843A3490839086046E0E06850B39A
:10C48000A0480838006840F001009E49083908605B
:10C49000FEF7CEFF054606E0FEF7CAFF401B022866
:10C4A00001D9032052E7974808380068C0F34000DC
:10C4B0000028F1D093480838006820F0F800F822EE
:10C4C00092FAA2F2B2FA82F22169914008438D49B0
:10C4D0000839086019E08B480838006820F001002E
:10C4E000884908390860FEF7A3FF054606E0FEF715
:10C4F0009FFF401B022801D9032027E78148083805
:10C500000068C0F340000028F1D1207800F0080056
:10C51000082836D16069D0B17A486C30006840F0A4
:10C52000010078496C310860FEF782FF054606E09D
:10C53000FEF77EFF401B022801D9032006E7714861
:10C540006C300068C0F340000028F1D019E06D485D
:10C550006C30006820F001006A496C310860FEF719
:10C5600067FF054606E0FEF763FF401B022801D97E
:10C570000320EBE663486C300068C0F340000028FD
:10C58000F1D1207800F00400042874D15D483830DF
:10C59000006800F0805080B900BF5A483830006809
:10C5A00040F080505749383108600846006800F074
:10C5B0008050009000BF00BF01265348006800F47F
:10C5C0008070B0B95048006840F480704E490860EF
:10C5D000FEF72EFF054606E0FEF72AFF401B642803
:10C5E00001D90320B2E64848006800F480700028B2
:10C5F000F2D000BFA068012808D142486830006826
:10C6000040F001003F49683108602DE0A06868B93A
:10C610003C486830006820F001003A496831086001
:10C620000846006820F0040008601DE0A0680528A6
:10C630000DD134486830006840F004003149683159
:10C6400008600846006840F0010008600CE02D48D2
:10C650006830006820F001002A4968310860084607
:10C66000006820F00400086000BFA068A8B1FEF7D1
:10C67000DFFE054609E02EE0FEF7DAFE401B41F240
:10C680008831884201D9032060E61E48683000687E
:10C69000C0F340000028EFD013E0FEF7C9FE0546C6
:10C6A00008E0FEF7C5FE401B41F28831884201D9FF
:10C6B00003204BE6134868300068C0F340000028B0
:10C6C000EFD1012E07D10F483830006820F080509C
:10C6D0000C4938310860A069F0B30A48006800F0DE
:10C6E0000C0008287FD0A069022863D105480838CB
:10C6F000006820F08070034908390860FEF798FE52
:10C7000005460AE00838024000700040FEF790FE3F
:10C71000401B022801D9032018E635480068C0F301
:10C7200040600028F2D1D4E90701084347F6C072FF
:10C7300092FAA2F2B2FA82F2616A914008430122AF
:10C74000A16AC2EB51014FF4403292FAA2F2B2FA5E
:10C7500082F29140084300E047E04FF0706292FAA5
:10C76000A2F2B2FA82F2E16A914008434FF0E0424D
:10C7700092FAA2F2B2FA82F2216B914008431C496C
:10C78000091D0860081F006840F08070091F0860DC
:10C79000FEF74EFE054606E0FEF74AFE401B022865
:10C7A00001D90320D2E512480068C0F34060002898
:10C7B000F2D01AE00E48006820F080700C49086042
:10C7C000FEF736FE054607E00DE0FEF731FE401BA2
:10C7D000022801D90320B9E505480068C0F340608C
:10C7E0000028F2D101E00120B0E50020AEE5000014
:10C7F00000380240042808D14FF0E021096941F0D7
:10C8000004014FF0E022116107E04FF0E0210969D7
:10C8100021F004014FF0E0221161704770B5044629
:10C820002546681EB0F1807F01D301200FE0681E0D
:10C830004FF0E02148610F214FF0FF3000F02EFE55
:10C8400000204FF0E021886107200861002070BDC2
:10C850007047704730B502460B4600BF92F83C0067
:10C86000012801D1022030BD012082F83C0000BF28
:10C8700010684168106884680F4D1068A84203D0A2
:10C880000E4D1068A84203D121F47001586801438D
:10C8900021F070011868014324F080049868044373
:10C8A000106841601068846000BF002082F83C007E
:10C8B00000BF00BFD7E700000000014000040140B6
:10C8C00001460868C06840F001000A68D060086846
:10C8D000006840F001000A68106000207047000006
:10C8E0002DE9F04104460D464FF0000800260027D0
:10C8F00014B90120BDE8F08194F83D0028B900206A
:10C9000084F83C00204600F047F8022084F83D00FF
:10C91000206880681F49084021688860211D2068C0
:10C9200002F0BEF82068D0F8088020688669206888
:10C93000076A286840EA080840F203308643A9697C
:10C94000A86840EA0120064340F60C4086434FF2B7
:10C95000F0008643E969E86840EA01200643286957
:10C960000001296A40EA0130064327F0220727F038
:10C9700088076969686840EA011007432068C0F8C1
:10C9800008802068866120680762012084F83D00E5
:10C990000020AFE7F8FFFEFF10B586B0044633492C
:10C9A000206888421CD100BF3148006840F0010077
:10C9B0002F4908600846006800F00100009000BFA1
:10C9C00000BF4FF4206001900220029000200390ED
:10C9D00004900120059001A92648FEF70FFC42E0D3
:10C9E0002549206888421DD100BF2148001F0068EA
:10C9F00040F002001E49091F08600846006800F068
:10CA00000200009000BF00BF302001900220029081
:10CA10000020039004900220059001A91748FEF71A
:10CA2000EDFB20E01649206888421CD100BF104869
:10CA3000001F006840F004000D49091F0860084607
:10CA4000006800F00400009000BF00BFC02001900B
:10CA5000022002900020039004900220059001A97A
:10CA60000648FEF7CBFB06B010BD000000000140F9
:10CA7000443802400010024000040040000402401C
:10CA80000008004030B504460D4615B1042D0CD108
:10CA900005E001220021206802F07AF810E001226E
:10CAA0000421206802F074F80AE0012200212068C5
:10CAB00002F06EF801220421206802F069F800BF3C
:10CAC00000BF2068006840F0010021680860002075
:10CAD00030BD704710B5044620680069C0F34000BF
:10CAE000D8B12068C068C0F34000B0B16FF0020058
:10CAF00021680861012020772068806900F0030028
:10CB000018B12046FFF7E5FF05E0204600F0FCF8ED
:10CB1000204600F00BFA0020207720680069C0F35F
:10CB20008000D8B12068C068C0F38000B0B16FF059
:10CB3000040021680861022020772068806900F4E1
:10CB4000407018B12046FFF7C4FF05E0204600F012
:10CB5000DBF8204600F0EAF9002020772068006921
:10CB6000C0F3C000D8B12068C068C0F3C000B0B145
:10CB70006FF0080021680861042020772068C069F0
:10CB800000F0030018B12046FFF7A3FF05E02046A0
:10CB900000F0BAF8204600F0C9F90020207720689C
:10CBA0000069C0F30010D8B12068C068C0F300105D
:10CBB000B0B16FF01000216808610820207720686C
:10CBC000C06900F4407018B12046FFF782FF05E00D
:10CBD000204600F099F8204600F0A8F900202077C0
:10CBE0002068006900F0010058B12068C06800F0BA
:10CBF000010030B16FF0010021680861204600F0AB
:10CC0000BDF920680069C0F3C01058B12068C06841
:10CC1000C0F3C01030B16FF0800021680861204679
:10CC2000FFF716FE20680069C0F3002058B12068A5
:10CC3000C068C0F3C01030B16FF080002168086197
:10CC40002046FFF705FE20680069C0F3801058B148
:10CC50002068C068C0F3801030B16FF040002168D8
:10CC60000861204600F08BF920680069C0F340108D
:10CC700058B12068C068C0F3401030B16FF0200098
:10CC8000216808612046FFF7E4FD10BD10B586B0AD
:10CC900004462068B0F1804F1CD120200190022072
:10CCA000029000200390022004900120059001A929
:10CCB0001248FEF7A3FA08200190022002900020FB
:10CCC0000390022004900120059001A90C48FEF772
:10CCD00095FA10E00B49206888420CD101200190A0
:10CCE000022002900020039002200490059001A9E8
:10CCF0000248FEF783FA06B010BD000000000240B3
:10CD000000040240000C0040704770B504460D4618
:10CD1000164600BF94F83C00012801D1022070BDE6
:10CD2000012084F83C0000BF022084F83D000C2E56
:10CD300051D005DC4EB1042E1ED0082E7AD133E03E
:10CD4000102E60D0142EF9D175E02946206801F02C
:10CD50002DFF2068806940F0080021688861206804
:10CD6000806920F004002168886120688069296951
:10CD700008432168886177E02946206801F050FF68
:10CD80002068806940F400602168886120688069BB
:10CD900020F480602168886120688069296940EA00
:10CDA0000120216888615FE02946206801F076FF54
:10CDB0002068C06940F008002168C8612068C06927
:10CDC00020F004002168C8612068C069296908430F
:10CDD0002168C86148E02946206801F09DFF20686D
:10CDE000C06940F400602168C8612068C06920F40F
:10CDF00080602168C8612068C069296940EA012013
:10CE00002168C86130E02946206801F0B7FF20683A
:10CE1000406D40F00800216848652068406D20F0B2
:10CE20000400216848652068406D2969084321682D
:10CE3000486519E017E02946206801F0CBFF20681B
:10CE4000406D40F40060216848652068406D20F422
:10CE50008060216848652068406D296940EA0120AA
:10CE60002168486500E000BF00BF012084F83D0054
:10CE700000BF002084F83C0000BF00BF4FE710B5A2
:10CE800004460CB9012010BD94F83D0028B90020DB
:10CE900084F83C00204600F00DF8022084F83D00A4
:10CEA000211D206801F0FCFD012084F83D000020D8
:10CEB000E9E7000038B504462068B0F1804F16D18C
:10CEC00000BF1848006840F0010016490860084695
:10CED000006800F00100009000BF00BF00220521A3
:10CEE0001C20FEF71AFB1C20FEF70AFB19E00E4976
:10CEF0002068884215D100BF0A48006840F0080049
:10CF0000084908600846006800F00800009000BF6B
:10CF100000BF002211463220FEF7FFFA3220FEF752
:10CF2000EFFA38BD40380240000C00407047000066
:10CF300030B504460D4601222946206801F028FE3E
:10CF40000C492068884203D00B492068884201D1EF
:10CF5000012000E0002028B12068406C40F400402F
:10CF6000216848642068006840F00100216808607A
:10CF7000002030BD000001400004014070477047B0
:10CF800038B54FF400511F48FEF744FAC0B3C02033
:10CF90008DF80000A8208DF8010010208DF8020007
:10CFA000FB208DF803004FF47A649DF803309DF860
:10CFB00002209DF801109DF8000003F04DFA204674
:10CFC00003F08AFA00BF00BF00BF00BF00BFBFF37D
:10CFD0004F8F00BF00BF00BF0B48006800F4E06047
:10CFE0000A490843001D0849086000BF00BF00BF90
:10CFF000BFF34F8F00BF00BF00BF00BF00BFFDE702
:10D00000FFE738BD000802400CED00E00000FA0523
:10D0100000B587B000BF4548006840F004004349B0
:10D0200008600846006800F00400019000BF00BFDF
:10D0300000BF0846006840F001000860084600682C
:10D0400000F00100019000BF00BF00BF084600686B
:10D0500040F0200008600846006800F020000190C1
:10D0600000BF00BF00BF0846006840F01000086025
:10D070000846006800F01000019000BF00BF00BF2C
:10D080000846006840F0020008600846006800F0AA
:10D090000200019000BF00BF00BF0846006840F0DA
:10D0A000080008600846006800F00800019000BF12
:10D0B00000BF00BF0846006840F040000860084616
:10D0C000006800F04000019000BF00BF00224FF454
:10D0D00040511748FEF7A6F94FF440500290012046
:10D0E000039000200490059002A91148FEF786F8ED
:10D0F0003F200290002003900220049002A90D48D6
:10D10000FEF77CF800224FF400510B48FEF78AF935
:10D110004FF400500290002003900220049002A9D6
:10D120000548FEF76BF807B000BD0000303802403C
:10D1300000140240000C0240000802400EB503F04B
:10D1400067F93449087003F063F9000A31494870FF
:10D1500003F05EF9000C2F49887003F059F9000EB6
:10D160002C49C870FF202C49087048708870002036
:10D17000C870002108460CF0CDFC2648C078010696
:10D180002448807841EA00412248407841EA002062
:10D19000204909780843214908601F48C0780106E2
:10D1A0001D48807841EA00411B48407841EA002050
:10D1B0001949097808431A4908601A48C0780106D5
:10D1C0001848807841EA00411648407841EA00203A
:10D1D0001449097808431449086014481449002286
:10D1E000114BCDE9002102900D4A0C49114805F080
:10D1F00097FD104805F016FE0E4890F82B00C0F37E
:10D20000800018B10B4805F065FE02E0094805F002
:10D2100011FE0EBD6C010020700100206001002095
:10D22000640100207401002068010020C99B0208ED
:10D23000A503020844B9012000B58DB01A481B4966
:10D2400008600020486000211848816041F2873161
:10D25000C1600021016141618161012004900020D1
:10D2600005900120069000200790022008900020E1
:10D27000099001200A9000200B9002200C9004A934
:10D280000A48FFF72DFB08B1FBF774FE0020019060
:10D290000290039001A90548FFF7DCFA08B1FBF7FB
:10D2A00069FE0DB000BD00000000014004B801207F
:10D2B00000B58BB04FF080401C49086000204860EA
:10D2C00000211A4881604FF6FF71C16000210161A1
:10D2D00080218161FFF7D3FD08B1FBF74BFE2020D1
:10D2E000089000200A9008A91048FFF7B3FA08B187
:10D2F000FBF740FE60200190002002900390042084
:10D300000590002201A90948FFF7FFFC08B1FBF7CF
:10D3100031FE042201A90548FFF7F7FC08B1FBF72D
:10D3200029FE0248FFF7B2FC0BB000BD44B8012053
:10D3300000B58DB019481A490860002048600021E6
:10D340001748816041F28731C1600021016181612C
:10D3500001200490002005900120069000200790F5
:10D36000022008900020099001200A9000200B90D4
:10D3700002200C9004A90A48FFF7B2FA08B1FBF7A3
:10D38000F9FD002001900290039001A90448FFF7E5
:10D3900061FA08B1FBF7EEFD0DB000BD00040040DE
:10D3A00084B8012000B58DB019481A4908600020E2
:10D3B000486000211748816041F28731C160002137
:10D3C00001618161012004900020059001200690F8
:10D3D00000200790022008900020099001200A9068
:10D3E00000200B9002200C9004A90A48FFF778FA5D
:10D3F00008B1FBF7BFFD002001900290039001A946
:10D400000448FFF727FA08B1FBF7B4FD0DB000BDE3
:10D4100000080040C4B8012000B58BB019481A4973
:10D420000860002048600021174881604FF6FF71B6
:10D43000C1600021016180218161FFF720FD08B1F9
:10D44000FBF798FD2020089000200A9008A90E48BC
:10D45000FFF700FA08B1FBF78DFD60200190002076
:10D460000290039004200590002201A90648FFF7CE
:10D470004CFC08B1FBF77EFD0348FFF707FC0BB03F
:10D4800000BD0000000C004004B901200248006803
:10D49000C0F30220704700000CED00E010B500283A
:10D4A00007DA0A07140E054A00F00F031B1FD454B5
:10D4B00003E00A07130E024A135410BD18ED00E0F2
:10D4C00000E400E010B50446022104EB4400C0EB88
:10D4D000C410C44A02EBC00080F8F8124FF4FA619D
:10D4E000204600F01BFF14B1012C0CD105E00122F5
:10D4F0001103BD48FDF796FF05E001225103BA482C
:10D50000FDF790FF00BF00BF204600F06DFF00BF99
:10D5100004EB4400C0EBC410B24901EBC000D0F8EA
:10D520005403012813D004EB4400C0EBC41001EBFA
:10D53000C000D0F87003012809D004EB4400C0EB10
:10D54000C41001EBC00090F8F9020528E0D0204695
:10D5500001F082F94FF4967005F0D2FC14B1012C61
:10D560005BD15BE0A148406A00EE100AF8EE400A89
:10D57000B0EE001A80EE810A9FED9D1AC0EE010AFE
:10D5800004EB4400C0EBC410964901EBC00090EDE1
:10D59000D50AB8EEC00A30EE800ADFED960A20EE1A
:10D5A000200A04EB4400C0EBC41001EBC00090ED76
:10D5B000501BF7EEC10B80EE201A04EB4400C0EBC9
:10D5C000C41001EBC00080EDD71A04EB4400C0EB9F
:10D5D000C41001EBC000D0F8540340F6C411484316
:10D5E0008249496A00EB510000EE100AB8EE400A89
:10D5F00004EB4400C0EBC4107A4901EBC00090ED8D
:10D60000501BF7EEC10B80EE801A04EB4400C0EB18
:10D61000C41001EBC00080EDD61AE0E004EB44003A
:10D62000C0EBC4106F4901EBC000D0F854030128CF
:10D6300009D004EB4400C0EBC41001EBC000D0F8EB
:10D64000700301287DD16C48006800EE100AF8EEE6
:10D65000400AB0EE001A80EE810A9FED651AC0EE16
:10D66000010A04EB4400C0EBC4105E4901EBC000AA
:10D6700090EDD50AB8EEC00A30EE800ADFED5D0A03
:10D6800020EE200A04EB4400C0EBC41001EBC00004
:10D6900090ED501BF7EEC10B80EE201A04EB440016
:10D6A000C0EBC41001EBC00080EDD71A52480068EF
:10D6B00000EE100AF8EE400AB0EE001A80EE810A81
:10D6C0009FED4B1AC0EE010A04EB4400C0EBC410FE
:10D6D00001EBC00090EDD50AB8EEC00A30EE800A2A
:10D6E000DFED430A20EE200A04EB4400C0EBC41037
:10D6F00001EBC00090ED501BF7EEC10B80EE801ADD
:10D7000004EB4400C0EBC41001EBC00080EDD61A5E
:10D710003A48006800EE100AF8EE400AB0EE001A2F
:10D7200080EE810A9FED321AC0EE010A04EB44003C
:10D73000C0EBC41001EBC00090EDDC0AB8EEC00AEB
:10D7400000E04CE030EE800ADFED2A0A20EE200AED
:10D7500004EB4400C0EBC41001EBC00090ED501B83
:10D76000F7EEC10B80EE201A04EB4400C0EBC410AE
:10D7700001EBC00080EDDE1A2048006800EE100AC0
:10D78000F8EE400AB0EE001A80EE810A9FED181AFA
:10D79000C0EE010A04EB4400C0EBC41001EBC00072
:10D7A00090EDDC0AB8EEC00A30EE800ADFED100A18
:10D7B00020EE200A04EB4400C0EBC41001EBC000D3
:10D7C00090ED501BF7EEC10B80EE801A04EB440085
:10D7D000C0EBC41001EBC00080EDDD1A00BF00BF3C
:10D7E00010BD000078B90120001402400000014083
:10D7F00000401C455A5405432404004024080040BE
:10D8000010B5044604EB4400C0EBC410864901EB9C
:10D81000C00090F8FA02002869D104EB4400C0EB84
:10D82000C41001EBC00090ED540B04EB4400C0EBBE
:10D83000C41001EBC00090ED841BB4EEC10BF1EEFF
:10D8400010FA14DA04EB4400C0EBC41001EBC00082
:10D8500090ED800B04EB4400C0EBC41001EBC00062
:10D8600090EDC81BB4EEC10BF1EE10FA0AD80121FD
:10D8700004EB4400C0EBC4106B4A02EBC00080F81C
:10D88000FA1202E02046FAF75BFE04EB4400C0EB1C
:10D89000C410654901EBC00090ED820A04EB44001E
:10D8A000C0EBC41001EBC000D0EDAA0AB4EEE00A50
:10D8B000F1EE10FA1BD8204600F0CEFF642005F0F0
:10D8C0001FFB204601F0F2FC012104EB4400C0EBF9
:10D8D000C410554A02EBC00080F8F612002104EB98
